{
  "contractName": "Colors",
  "abi": [
    {
      "inputs": [],
      "stateMutability": "nonpayable",
      "type": "constructor"
    },
    {
      "anonymous": false,
      "inputs": [
        {
          "indexed": true,
          "internalType": "address",
          "name": "owner",
          "type": "address"
        },
        {
          "indexed": true,
          "internalType": "address",
          "name": "approved",
          "type": "address"
        },
        {
          "indexed": true,
          "internalType": "uint256",
          "name": "tokenId",
          "type": "uint256"
        }
      ],
      "name": "Approval",
      "type": "event"
    },
    {
      "anonymous": false,
      "inputs": [
        {
          "indexed": true,
          "internalType": "address",
          "name": "owner",
          "type": "address"
        },
        {
          "indexed": true,
          "internalType": "address",
          "name": "operator",
          "type": "address"
        },
        {
          "indexed": false,
          "internalType": "bool",
          "name": "approved",
          "type": "bool"
        }
      ],
      "name": "ApprovalForAll",
      "type": "event"
    },
    {
      "anonymous": false,
      "inputs": [
        {
          "indexed": false,
          "internalType": "string",
          "name": "_rgb",
          "type": "string"
        },
        {
          "indexed": false,
          "internalType": "uint256",
          "name": "id",
          "type": "uint256"
        }
      ],
      "name": "TokenMinted",
      "type": "event"
    },
    {
      "anonymous": false,
      "inputs": [
        {
          "indexed": true,
          "internalType": "address",
          "name": "from",
          "type": "address"
        },
        {
          "indexed": true,
          "internalType": "address",
          "name": "to",
          "type": "address"
        },
        {
          "indexed": true,
          "internalType": "uint256",
          "name": "tokenId",
          "type": "uint256"
        }
      ],
      "name": "Transfer",
      "type": "event"
    },
    {
      "inputs": [
        {
          "internalType": "string",
          "name": "",
          "type": "string"
        }
      ],
      "name": "_colors",
      "outputs": [
        {
          "internalType": "uint256",
          "name": "",
          "type": "uint256"
        }
      ],
      "stateMutability": "view",
      "type": "function",
      "constant": true
    },
    {
      "inputs": [
        {
          "internalType": "address",
          "name": "to",
          "type": "address"
        },
        {
          "internalType": "uint256",
          "name": "tokenId",
          "type": "uint256"
        }
      ],
      "name": "approve",
      "outputs": [],
      "stateMutability": "nonpayable",
      "type": "function"
    },
    {
      "inputs": [
        {
          "internalType": "address",
          "name": "owner",
          "type": "address"
        }
      ],
      "name": "balanceOf",
      "outputs": [
        {
          "internalType": "uint256",
          "name": "",
          "type": "uint256"
        }
      ],
      "stateMutability": "view",
      "type": "function",
      "constant": true
    },
    {
      "inputs": [
        {
          "internalType": "uint256",
          "name": "tokenId",
          "type": "uint256"
        }
      ],
      "name": "getApproved",
      "outputs": [
        {
          "internalType": "address",
          "name": "",
          "type": "address"
        }
      ],
      "stateMutability": "view",
      "type": "function",
      "constant": true
    },
    {
      "inputs": [
        {
          "internalType": "address",
          "name": "owner",
          "type": "address"
        },
        {
          "internalType": "address",
          "name": "operator",
          "type": "address"
        }
      ],
      "name": "isApprovedForAll",
      "outputs": [
        {
          "internalType": "bool",
          "name": "",
          "type": "bool"
        }
      ],
      "stateMutability": "view",
      "type": "function",
      "constant": true
    },
    {
      "inputs": [],
      "name": "name",
      "outputs": [
        {
          "internalType": "string",
          "name": "",
          "type": "string"
        }
      ],
      "stateMutability": "view",
      "type": "function",
      "constant": true
    },
    {
      "inputs": [
        {
          "internalType": "uint256",
          "name": "tokenId",
          "type": "uint256"
        }
      ],
      "name": "ownerOf",
      "outputs": [
        {
          "internalType": "address",
          "name": "",
          "type": "address"
        }
      ],
      "stateMutability": "view",
      "type": "function",
      "constant": true
    },
    {
      "inputs": [
        {
          "internalType": "address",
          "name": "from",
          "type": "address"
        },
        {
          "internalType": "address",
          "name": "to",
          "type": "address"
        },
        {
          "internalType": "uint256",
          "name": "tokenId",
          "type": "uint256"
        }
      ],
      "name": "safeTransferFrom",
      "outputs": [],
      "stateMutability": "nonpayable",
      "type": "function"
    },
    {
      "inputs": [
        {
          "internalType": "address",
          "name": "from",
          "type": "address"
        },
        {
          "internalType": "address",
          "name": "to",
          "type": "address"
        },
        {
          "internalType": "uint256",
          "name": "tokenId",
          "type": "uint256"
        },
        {
          "internalType": "bytes",
          "name": "_data",
          "type": "bytes"
        }
      ],
      "name": "safeTransferFrom",
      "outputs": [],
      "stateMutability": "nonpayable",
      "type": "function"
    },
    {
      "inputs": [
        {
          "internalType": "address",
          "name": "operator",
          "type": "address"
        },
        {
          "internalType": "bool",
          "name": "approved",
          "type": "bool"
        }
      ],
      "name": "setApprovalForAll",
      "outputs": [],
      "stateMutability": "nonpayable",
      "type": "function"
    },
    {
      "inputs": [],
      "name": "symbol",
      "outputs": [
        {
          "internalType": "string",
          "name": "",
          "type": "string"
        }
      ],
      "stateMutability": "view",
      "type": "function",
      "constant": true
    },
    {
      "inputs": [
        {
          "internalType": "uint256",
          "name": "index",
          "type": "uint256"
        }
      ],
      "name": "tokenByIndex",
      "outputs": [
        {
          "internalType": "uint256",
          "name": "",
          "type": "uint256"
        }
      ],
      "stateMutability": "view",
      "type": "function",
      "constant": true
    },
    {
      "inputs": [
        {
          "internalType": "address",
          "name": "owner",
          "type": "address"
        },
        {
          "internalType": "uint256",
          "name": "index",
          "type": "uint256"
        }
      ],
      "name": "tokenOfOwnerByIndex",
      "outputs": [
        {
          "internalType": "uint256",
          "name": "",
          "type": "uint256"
        }
      ],
      "stateMutability": "view",
      "type": "function",
      "constant": true
    },
    {
      "inputs": [
        {
          "internalType": "uint256",
          "name": "tokenId",
          "type": "uint256"
        }
      ],
      "name": "tokenURI",
      "outputs": [
        {
          "internalType": "string",
          "name": "",
          "type": "string"
        }
      ],
      "stateMutability": "view",
      "type": "function",
      "constant": true
    },
    {
      "inputs": [],
      "name": "totalSupply",
      "outputs": [
        {
          "internalType": "uint256",
          "name": "",
          "type": "uint256"
        }
      ],
      "stateMutability": "view",
      "type": "function",
      "constant": true
    },
    {
      "inputs": [
        {
          "internalType": "address",
          "name": "from",
          "type": "address"
        },
        {
          "internalType": "address",
          "name": "to",
          "type": "address"
        },
        {
          "internalType": "uint256",
          "name": "tokenId",
          "type": "uint256"
        }
      ],
      "name": "transferFrom",
      "outputs": [],
      "stateMutability": "nonpayable",
      "type": "function"
    },
    {
      "inputs": [
        {
          "internalType": "bytes4",
          "name": "interfaceId",
          "type": "bytes4"
        }
      ],
      "name": "supportsInterface",
      "outputs": [
        {
          "internalType": "bool",
          "name": "",
          "type": "bool"
        }
      ],
      "stateMutability": "view",
      "type": "function",
      "constant": true
    },
    {
      "inputs": [
        {
          "internalType": "string",
          "name": "_rgb",
          "type": "string"
        }
      ],
      "name": "mint",
      "outputs": [],
      "stateMutability": "nonpayable",
      "type": "function"
    }
  ],
  "bytecode": "0x60806040526000600a553480156200001657600080fd5b506040518060400160405280600681526020017f436f6c6f727300000000000000000000000000000000000000000000000000008152506040518060400160405280600381526020017f434c52000000000000000000000000000000000000000000000000000000000081525081600090805190602001906200009b929190620000bd565b508060019080519060200190620000b4929190620000bd565b505050620001d2565b828054620000cb906200016d565b90600052602060002090601f016020900481019282620000ef57600085556200013b565b82601f106200010a57805160ff19168380011785556200013b565b828001600101855582156200013b579182015b828111156200013a5782518255916020019190600101906200011d565b5b5090506200014a91906200014e565b5090565b5b80821115620001695760008160009055506001016200014f565b5090565b600060028204905060018216806200018657607f821691505b602082108114156200019d576200019c620001a3565b5b50919050565b7f4e487b7100000000000000000000000000000000000000000000000000000000600052602260045260246000fd5b612ca680620001e26000396000f3fe608060405234801561001057600080fd5b50600436106101165760003560e01c806350baa83e116100a2578063a22cb46511610071578063a22cb46514610319578063b88d4fde14610335578063c87b56dd14610351578063d85d3d2714610381578063e985e9c51461039d57610116565b806350baa83e1461026b5780636352211e1461029b57806370a08231146102cb57806395d89b41146102fb57610116565b806318160ddd116100e957806318160ddd146101b557806323b872dd146101d35780632f745c59146101ef57806342842e0e1461021f5780634f6ccce71461023b57610116565b806301ffc9a71461011b57806306fdde031461014b578063081812fc14610169578063095ea7b314610199575b600080fd5b61013560048036038101906101309190611d2c565b6103cd565b60405161014291906125ae565b60405180910390f35b6101536103df565b60405161016091906125c9565b60405180910390f35b610183600480360381019061017e9190611dbf565b610471565b6040516101909190612547565b60405180910390f35b6101b360048036038101906101ae9190611cf0565b6104f6565b005b6101bd61060e565b6040516101ca919061283b565b60405180910390f35b6101ed60048036038101906101e89190611bea565b61061b565b005b61020960048036038101906102049190611cf0565b61067b565b604051610216919061283b565b60405180910390f35b61023960048036038101906102349190611bea565b610720565b005b61025560048036038101906102509190611dbf565b610740565b604051610262919061283b565b60405180910390f35b61028560048036038101906102809190611d7e565b6107d7565b604051610292919061283b565b60405180910390f35b6102b560048036038101906102b09190611dbf565b610805565b6040516102c29190612547565b60405180910390f35b6102e560048036038101906102e09190611b85565b6108b7565b6040516102f2919061283b565b60405180910390f35b61030361096f565b60405161031091906125c9565b60405180910390f35b610333600480360381019061032e9190611cb4565b610a01565b005b61034f600480360381019061034a9190611c39565b610a17565b005b61036b60048036038101906103669190611dbf565b610a79565b60405161037891906125c9565b60405180910390f35b61039b60048036038101906103969190611d7e565b610b20565b005b6103b760048036038101906103b29190611bae565b610c08565b6040516103c491906125ae565b60405180910390f35b60006103d882610c9c565b9050919050565b6060600080546103ee90612a9b565b80601f016020809104026020016040519081016040528092919081815260200182805461041a90612a9b565b80156104675780601f1061043c57610100808354040283529160200191610467565b820191906000526020600020905b81548152906001019060200180831161044a57829003601f168201915b5050505050905090565b600061047c82610d16565b6104bb576040517f08c379a00000000000000000000000000000000000000000000000000000000081526004016104b29061275b565b60405180910390fd5b6004600083815260200190815260200160002060009054906101000a900473ffffffffffffffffffffffffffffffffffffffff169050919050565b600061050182610805565b90508073ffffffffffffffffffffffffffffffffffffffff168373ffffffffffffffffffffffffffffffffffffffff161415610572576040517f08c379a0000000000000000000000000000000000000000000000000000000008152600401610569906127bb565b60405180910390fd5b8073ffffffffffffffffffffffffffffffffffffffff16610591610d82565b73ffffffffffffffffffffffffffffffffffffffff1614806105c057506105bf816105ba610d82565b610c08565b5b6105ff576040517f08c379a00000000000000000000000000000000000000000000000000000000081526004016105f6906126db565b60405180910390fd5b6106098383610d8a565b505050565b6000600880549050905090565b61062c610626610d82565b82610e43565b61066b576040517f08c379a0000000000000000000000000000000000000000000000000000000008152600401610662906127db565b60405180910390fd5b610676838383610f21565b505050565b6000610686836108b7565b82106106c7576040517f08c379a00000000000000000000000000000000000000000000000000000000081526004016106be9061261b565b60405180910390fd5b600660008473ffffffffffffffffffffffffffffffffffffffff1673ffffffffffffffffffffffffffffffffffffffff168152602001908152602001600020600083815260200190815260200160002054905092915050565b61073b83838360405180602001604052806000815250610a17565b505050565b600061074a61060e565b821061078b576040517f08c379a0000000000000000000000000000000000000000000000000000000008152600401610782906127fb565b60405180910390fd5b600882815481106107c5577f4e487b7100000000000000000000000000000000000000000000000000000000600052603260045260246000fd5b90600052602060002001549050919050565b600b818051602081018201805184825260208301602085012081835280955050505050506000915090505481565b6000806002600084815260200190815260200160002060009054906101000a900473ffffffffffffffffffffffffffffffffffffffff169050600073ffffffffffffffffffffffffffffffffffffffff168173ffffffffffffffffffffffffffffffffffffffff1614156108ae576040517f08c379a00000000000000000000000000000000000000000000000000000000081526004016108a59061271b565b60405180910390fd5b80915050919050565b60008073ffffffffffffffffffffffffffffffffffffffff168273ffffffffffffffffffffffffffffffffffffffff161415610928576040517f08c379a000000000000000000000000000000000000000000000000000000000815260040161091f906126fb565b60405180910390fd5b600360008373ffffffffffffffffffffffffffffffffffffffff1673ffffffffffffffffffffffffffffffffffffffff168152602001908152602001600020549050919050565b60606001805461097e90612a9b565b80601f01602080910402602001604051908101604052809291908181526020018280546109aa90612a9b565b80156109f75780601f106109cc576101008083540402835291602001916109f7565b820191906000526020600020905b8154815290600101906020018083116109da57829003601f168201915b5050505050905090565b610a13610a0c610d82565b838361117d565b5050565b610a28610a22610d82565b83610e43565b610a67576040517f08c379a0000000000000000000000000000000000000000000000000000000008152600401610a5e906127db565b60405180910390fd5b610a73848484846112ea565b50505050565b6060610a8482610d16565b610ac3576040517f08c379a0000000000000000000000000000000000000000000000000000000008152600401610aba9061279b565b60405180910390fd5b6000610acd611346565b90506000815111610aed5760405180602001604052806000815250610b18565b80610af78461135d565b604051602001610b08929190612523565b6040516020818303038152906040525b915050919050565b600a6000815480929190610b3390612acd565b91905055506000600b82604051610b4a919061250c565b90815260200160405180910390205414610b99576040517f08c379a0000000000000000000000000000000000000000000000000000000008152600401610b909061281b565b60405180910390fd5b600a54600b82604051610bac919061250c565b908152602001604051809103902081905550610bca33600a5461150a565b7f51413fa31ea07fada8e4b3a4719c2683c7288050bc37c83c4ad11ce93423087f81600a54604051610bfd9291906125eb565b60405180910390a150565b6000600560008473ffffffffffffffffffffffffffffffffffffffff1673ffffffffffffffffffffffffffffffffffffffff16815260200190815260200160002060008373ffffffffffffffffffffffffffffffffffffffff1673ffffffffffffffffffffffffffffffffffffffff16815260200190815260200160002060009054906101000a900460ff16905092915050565b60007f780e9d63000000000000000000000000000000000000000000000000000000007bffffffffffffffffffffffffffffffffffffffffffffffffffffffff1916827bffffffffffffffffffffffffffffffffffffffffffffffffffffffff19161480610d0f5750610d0e82611528565b5b9050919050565b60008073ffffffffffffffffffffffffffffffffffffffff166002600084815260200190815260200160002060009054906101000a900473ffffffffffffffffffffffffffffffffffffffff1673ffffffffffffffffffffffffffffffffffffffff1614159050919050565b600033905090565b816004600083815260200190815260200160002060006101000a81548173ffffffffffffffffffffffffffffffffffffffff021916908373ffffffffffffffffffffffffffffffffffffffff160217905550808273ffffffffffffffffffffffffffffffffffffffff16610dfd83610805565b73ffffffffffffffffffffffffffffffffffffffff167f8c5be1e5ebec7d5bd14f71427d1e84f3dd0314c0f7b2291e5b200ac8c7c3b92560405160405180910390a45050565b6000610e4e82610d16565b610e8d576040517f08c379a0000000000000000000000000000000000000000000000000000000008152600401610e84906126bb565b60405180910390fd5b6000610e9883610805565b90508073ffffffffffffffffffffffffffffffffffffffff168473ffffffffffffffffffffffffffffffffffffffff161480610f0757508373ffffffffffffffffffffffffffffffffffffffff16610eef84610471565b73ffffffffffffffffffffffffffffffffffffffff16145b80610f185750610f178185610c08565b5b91505092915050565b8273ffffffffffffffffffffffffffffffffffffffff16610f4182610805565b73ffffffffffffffffffffffffffffffffffffffff1614610f97576040517f08c379a0000000000000000000000000000000000000000000000000000000008152600401610f8e9061277b565b60405180910390fd5b600073ffffffffffffffffffffffffffffffffffffffff168273ffffffffffffffffffffffffffffffffffffffff161415611007576040517f08c379a0000000000000000000000000000000000000000000000000000000008152600401610ffe9061267b565b60405180910390fd5b61101283838361160a565b61101d600082610d8a565b6001600360008573ffffffffffffffffffffffffffffffffffffffff1673ffffffffffffffffffffffffffffffffffffffff168152602001908152602001600020600082825461106d91906129b1565b925050819055506001600360008473ffffffffffffffffffffffffffffffffffffffff1673ffffffffffffffffffffffffffffffffffffffff16815260200190815260200160002060008282546110c4919061292a565b92505081905550816002600083815260200190815260200160002060006101000a81548173ffffffffffffffffffffffffffffffffffffffff021916908373ffffffffffffffffffffffffffffffffffffffff160217905550808273ffffffffffffffffffffffffffffffffffffffff168473ffffffffffffffffffffffffffffffffffffffff167fddf252ad1be2c89b69c2b068fc378daa952ba7f163c4a11628f55a4df523b3ef60405160405180910390a4505050565b8173ffffffffffffffffffffffffffffffffffffffff168373ffffffffffffffffffffffffffffffffffffffff1614156111ec576040517f08c379a00000000000000000000000000000000000000000000000000000000081526004016111e39061269b565b60405180910390fd5b80600560008573ffffffffffffffffffffffffffffffffffffffff1673ffffffffffffffffffffffffffffffffffffffff16815260200190815260200160002060008473ffffffffffffffffffffffffffffffffffffffff1673ffffffffffffffffffffffffffffffffffffffff16815260200190815260200160002060006101000a81548160ff0219169083151502179055508173ffffffffffffffffffffffffffffffffffffffff168373ffffffffffffffffffffffffffffffffffffffff167f17307eab39ab6107e8899845ad3d59bd9653f200f220920489ca2b5937696c31836040516112dd91906125ae565b60405180910390a3505050565b6112f5848484610f21565b6113018484848461160f565b611340576040517f08c379a00000000000000000000000000000000000000000000000000000000081526004016113379061263b565b60405180910390fd5b50505050565b606060405180602001604052806000815250905090565b606060008214156113a5576040518060400160405280600181526020017f30000000000000000000000000000000000000000000000000000000000000008152509050611505565b600082905060005b600082146113d75780806113c090612acd565b915050600a826113d09190612980565b91506113ad565b60008167ffffffffffffffff811115611419577f4e487b7100000000000000000000000000000000000000000000000000000000600052604160045260246000fd5b6040519080825280601f01601f19166020018201604052801561144b5781602001600182028036833780820191505090505b5090505b600085146114fe5760018261146491906129b1565b9150600a856114739190612b16565b603061147f919061292a565b60f81b8183815181106114bb577f4e487b7100000000000000000000000000000000000000000000000000000000600052603260045260246000fd5b60200101907effffffffffffffffffffffffffffffffffffffffffffffffffffffffffffff1916908160001a905350600a856114f79190612980565b945061144f565b8093505050505b919050565b6115248282604051806020016040528060008152506117a6565b5050565b60007f80ac58cd000000000000000000000000000000000000000000000000000000007bffffffffffffffffffffffffffffffffffffffffffffffffffffffff1916827bffffffffffffffffffffffffffffffffffffffffffffffffffffffff191614806115f357507f5b5e139f000000000000000000000000000000000000000000000000000000007bffffffffffffffffffffffffffffffffffffffffffffffffffffffff1916827bffffffffffffffffffffffffffffffffffffffffffffffffffffffff1916145b80611603575061160282611801565b5b9050919050565b505050565b60006116308473ffffffffffffffffffffffffffffffffffffffff1661186b565b15611799578373ffffffffffffffffffffffffffffffffffffffff1663150b7a02611659610d82565b8786866040518563ffffffff1660e01b815260040161167b9493929190612562565b602060405180830381600087803b15801561169557600080fd5b505af19250505080156116c657506040513d601f19601f820116820180604052508101906116c39190611d55565b60015b611749573d80600081146116f6576040519150601f19603f3d011682016040523d82523d6000602084013e6116fb565b606091505b50600081511415611741576040517f08c379a00000000000000000000000000000000000000000000000000000000081526004016117389061263b565b60405180910390fd5b805181602001fd5b63150b7a0260e01b7bffffffffffffffffffffffffffffffffffffffffffffffffffffffff1916817bffffffffffffffffffffffffffffffffffffffffffffffffffffffff19161491505061179e565b600190505b949350505050565b6117b0838361187e565b6117bd600084848461160f565b6117fc576040517f08c379a00000000000000000000000000000000000000000000000000000000081526004016117f39061263b565b60405180910390fd5b505050565b60007f01ffc9a7000000000000000000000000000000000000000000000000000000007bffffffffffffffffffffffffffffffffffffffffffffffffffffffff1916827bffffffffffffffffffffffffffffffffffffffffffffffffffffffff1916149050919050565b600080823b905060008111915050919050565b600073ffffffffffffffffffffffffffffffffffffffff168273ffffffffffffffffffffffffffffffffffffffff1614156118ee576040517f08c379a00000000000000000000000000000000000000000000000000000000081526004016118e59061273b565b60405180910390fd5b6118f781610d16565b15611937576040517f08c379a000000000000000000000000000000000000000000000000000000000815260040161192e9061265b565b60405180910390fd5b6119436000838361160a565b6001600360008473ffffffffffffffffffffffffffffffffffffffff1673ffffffffffffffffffffffffffffffffffffffff1681526020019081526020016000206000828254611993919061292a565b92505081905550816002600083815260200190815260200160002060006101000a81548173ffffffffffffffffffffffffffffffffffffffff021916908373ffffffffffffffffffffffffffffffffffffffff160217905550808273ffffffffffffffffffffffffffffffffffffffff16600073ffffffffffffffffffffffffffffffffffffffff167fddf252ad1be2c89b69c2b068fc378daa952ba7f163c4a11628f55a4df523b3ef60405160405180910390a45050565b6000611a5f611a5a84612887565b612856565b905082815260208101848484011115611a7757600080fd5b611a82848285612a59565b509392505050565b6000611a9d611a98846128b7565b612856565b905082815260208101848484011115611ab557600080fd5b611ac0848285612a59565b509392505050565b600081359050611ad781612c14565b92915050565b600081359050611aec81612c2b565b92915050565b600081359050611b0181612c42565b92915050565b600081519050611b1681612c42565b92915050565b600082601f830112611b2d57600080fd5b8135611b3d848260208601611a4c565b91505092915050565b600082601f830112611b5757600080fd5b8135611b67848260208601611a8a565b91505092915050565b600081359050611b7f81612c59565b92915050565b600060208284031215611b9757600080fd5b6000611ba584828501611ac8565b91505092915050565b60008060408385031215611bc157600080fd5b6000611bcf85828601611ac8565b9250506020611be085828601611ac8565b9150509250929050565b600080600060608486031215611bff57600080fd5b6000611c0d86828701611ac8565b9350506020611c1e86828701611ac8565b9250506040611c2f86828701611b70565b9150509250925092565b60008060008060808587031215611c4f57600080fd5b6000611c5d87828801611ac8565b9450506020611c6e87828801611ac8565b9350506040611c7f87828801611b70565b925050606085013567ffffffffffffffff811115611c9c57600080fd5b611ca887828801611b1c565b91505092959194509250565b60008060408385031215611cc757600080fd5b6000611cd585828601611ac8565b9250506020611ce685828601611add565b9150509250929050565b60008060408385031215611d0357600080fd5b6000611d1185828601611ac8565b9250506020611d2285828601611b70565b9150509250929050565b600060208284031215611d3e57600080fd5b6000611d4c84828501611af2565b91505092915050565b600060208284031215611d6757600080fd5b6000611d7584828501611b07565b91505092915050565b600060208284031215611d9057600080fd5b600082013567ffffffffffffffff811115611daa57600080fd5b611db684828501611b46565b91505092915050565b600060208284031215611dd157600080fd5b6000611ddf84828501611b70565b91505092915050565b611df1816129e5565b82525050565b611e00816129f7565b82525050565b6000611e11826128e7565b611e1b81856128fd565b9350611e2b818560208601612a68565b611e3481612c03565b840191505092915050565b6000611e4a826128f2565b611e54818561290e565b9350611e64818560208601612a68565b611e6d81612c03565b840191505092915050565b6000611e83826128f2565b611e8d818561291f565b9350611e9d818560208601612a68565b80840191505092915050565b6000611eb6602b8361290e565b91507f455243373231456e756d657261626c653a206f776e657220696e646578206f7560008301527f74206f6620626f756e64730000000000000000000000000000000000000000006020830152604082019050919050565b6000611f1c60328361290e565b91507f4552433732313a207472616e7366657220746f206e6f6e20455243373231526560008301527f63656976657220696d706c656d656e74657200000000000000000000000000006020830152604082019050919050565b6000611f82601c8361290e565b91507f4552433732313a20746f6b656e20616c7265616479206d696e746564000000006000830152602082019050919050565b6000611fc260248361290e565b91507f4552433732313a207472616e7366657220746f20746865207a65726f2061646460008301527f72657373000000000000000000000000000000000000000000000000000000006020830152604082019050919050565b600061202860198361290e565b91507f4552433732313a20617070726f766520746f2063616c6c6572000000000000006000830152602082019050919050565b6000612068602c8361290e565b91507f4552433732313a206f70657261746f7220717565727920666f72206e6f6e657860008301527f697374656e7420746f6b656e00000000000000000000000000000000000000006020830152604082019050919050565b60006120ce60388361290e565b91507f4552433732313a20617070726f76652063616c6c6572206973206e6f74206f7760008301527f6e6572206e6f7220617070726f76656420666f7220616c6c00000000000000006020830152604082019050919050565b6000612134602a8361290e565b91507f4552433732313a2062616c616e636520717565727920666f7220746865207a6560008301527f726f2061646472657373000000000000000000000000000000000000000000006020830152604082019050919050565b600061219a60298361290e565b91507f4552433732313a206f776e657220717565727920666f72206e6f6e657869737460008301527f656e7420746f6b656e00000000000000000000000000000000000000000000006020830152604082019050919050565b600061220060208361290e565b91507f4552433732313a206d696e7420746f20746865207a65726f20616464726573736000830152602082019050919050565b6000612240602c8361290e565b91507f4552433732313a20617070726f76656420717565727920666f72206e6f6e657860008301527f697374656e7420746f6b656e00000000000000000000000000000000000000006020830152604082019050919050565b60006122a660298361290e565b91507f4552433732313a207472616e73666572206f6620746f6b656e2074686174206960008301527f73206e6f74206f776e00000000000000000000000000000000000000000000006020830152604082019050919050565b600061230c602f8361290e565b91507f4552433732314d657461646174613a2055524920717565727920666f72206e6f60008301527f6e6578697374656e7420746f6b656e00000000000000000000000000000000006020830152604082019050919050565b600061237260218361290e565b91507f4552433732313a20617070726f76616c20746f2063757272656e74206f776e6560008301527f72000000000000000000000000000000000000000000000000000000000000006020830152604082019050919050565b60006123d860318361290e565b91507f4552433732313a207472616e736665722063616c6c6572206973206e6f74206f60008301527f776e6572206e6f7220617070726f7665640000000000000000000000000000006020830152604082019050919050565b600061243e602c8361290e565b91507f455243373231456e756d657261626c653a20676c6f62616c20696e646578206f60008301527f7574206f6620626f756e647300000000000000000000000000000000000000006020830152604082019050919050565b60006124a460288361290e565b91507f4120746f6b656e20666f72207468697320636f6c6f7220697320616c7265616460008301527f79206d696e7465640000000000000000000000000000000000000000000000006020830152604082019050919050565b61250681612a4f565b82525050565b60006125188284611e78565b915081905092915050565b600061252f8285611e78565b915061253b8284611e78565b91508190509392505050565b600060208201905061255c6000830184611de8565b92915050565b60006080820190506125776000830187611de8565b6125846020830186611de8565b61259160408301856124fd565b81810360608301526125a38184611e06565b905095945050505050565b60006020820190506125c36000830184611df7565b92915050565b600060208201905081810360008301526125e38184611e3f565b905092915050565b600060408201905081810360008301526126058185611e3f565b905061261460208301846124fd565b9392505050565b6000602082019050818103600083015261263481611ea9565b9050919050565b6000602082019050818103600083015261265481611f0f565b9050919050565b6000602082019050818103600083015261267481611f75565b9050919050565b6000602082019050818103600083015261269481611fb5565b9050919050565b600060208201905081810360008301526126b48161201b565b9050919050565b600060208201905081810360008301526126d48161205b565b9050919050565b600060208201905081810360008301526126f4816120c1565b9050919050565b6000602082019050818103600083015261271481612127565b9050919050565b600060208201905081810360008301526127348161218d565b9050919050565b60006020820190508181036000830152612754816121f3565b9050919050565b6000602082019050818103600083015261277481612233565b9050919050565b6000602082019050818103600083015261279481612299565b9050919050565b600060208201905081810360008301526127b4816122ff565b9050919050565b600060208201905081810360008301526127d481612365565b9050919050565b600060208201905081810360008301526127f4816123cb565b9050919050565b6000602082019050818103600083015261281481612431565b9050919050565b6000602082019050818103600083015261283481612497565b9050919050565b600060208201905061285060008301846124fd565b92915050565b6000604051905081810181811067ffffffffffffffff8211171561287d5761287c612bd4565b5b8060405250919050565b600067ffffffffffffffff8211156128a2576128a1612bd4565b5b601f19601f8301169050602081019050919050565b600067ffffffffffffffff8211156128d2576128d1612bd4565b5b601f19601f8301169050602081019050919050565b600081519050919050565b600081519050919050565b600082825260208201905092915050565b600082825260208201905092915050565b600081905092915050565b600061293582612a4f565b915061294083612a4f565b9250827fffffffffffffffffffffffffffffffffffffffffffffffffffffffffffffffff0382111561297557612974612b47565b5b828201905092915050565b600061298b82612a4f565b915061299683612a4f565b9250826129a6576129a5612b76565b5b828204905092915050565b60006129bc82612a4f565b91506129c783612a4f565b9250828210156129da576129d9612b47565b5b828203905092915050565b60006129f082612a2f565b9050919050565b60008115159050919050565b60007fffffffff0000000000000000000000000000000000000000000000000000000082169050919050565b600073ffffffffffffffffffffffffffffffffffffffff82169050919050565b6000819050919050565b82818337600083830152505050565b60005b83811015612a86578082015181840152602081019050612a6b565b83811115612a95576000848401525b50505050565b60006002820490506001821680612ab357607f821691505b60208210811415612ac757612ac6612ba5565b5b50919050565b6000612ad882612a4f565b91507fffffffffffffffffffffffffffffffffffffffffffffffffffffffffffffffff821415612b0b57612b0a612b47565b5b600182019050919050565b6000612b2182612a4f565b9150612b2c83612a4f565b925082612b3c57612b3b612b76565b5b828206905092915050565b7f4e487b7100000000000000000000000000000000000000000000000000000000600052601160045260246000fd5b7f4e487b7100000000000000000000000000000000000000000000000000000000600052601260045260246000fd5b7f4e487b7100000000000000000000000000000000000000000000000000000000600052602260045260246000fd5b7f4e487b7100000000000000000000000000000000000000000000000000000000600052604160045260246000fd5b6000601f19601f8301169050919050565b612c1d816129e5565b8114612c2857600080fd5b50565b612c34816129f7565b8114612c3f57600080fd5b50565b612c4b81612a03565b8114612c5657600080fd5b50565b612c6281612a4f565b8114612c6d57600080fd5b5056fea264697066735822122088232326fa572084909870988579f97c5a3288a894be7f8f16928f6ea564f49764736f6c63430008000033",
  "immutableReferences": {},
  "source": "// SPDX-License-Identifier: GPL-3.0\r\n\r\npragma solidity >=0.8.0 <0.9.0;\r\n\r\nimport \"@openzeppelin/contracts/token/ERC721/ERC721.sol\";\r\nimport \"@openzeppelin/contracts/token/ERC721/extensions/ERC721Enumerable.sol\";\r\n/**\r\n * @title SmartWill\r\n * @dev Time based resource transfers\r\n */\r\ncontract Colors is ERC721, ERC721Enumerable {\r\n\r\n    event TokenMinted(string _rgb, uint id);\r\n\r\n    uint256 currentId = 0;\r\n    mapping(string => uint256) public _colors;\r\n\r\n    constructor() ERC721(\"Colors\", \"CLR\") {}\r\n\r\n    function _beforeTokenTransfer(address from, address to, uint256 tokenId) internal override(ERC721, ERC721Enumerable){\r\n        //super._beforeTokenTransfer(from, to, tokenId);\r\n    }\r\n\r\n    function supportsInterface(bytes4 interfaceId) public view override(ERC721, ERC721Enumerable) returns (bool){\r\n        return super.supportsInterface(interfaceId);\r\n    }\r\n\r\n    function mint(string memory _rgb) public {\r\n        currentId++;\r\n        // Colors should not have been used yet\r\n        require(_colors[_rgb] == 0, 'A token for this color is already minted');\r\n        _colors[_rgb] = currentId;\r\n        _safeMint(msg.sender, currentId);\r\n        emit TokenMinted(_rgb,currentId);\r\n    }\r\n\r\n}",
  "sourcePath": "D:\\dev\\colors_contract\\contracts\\Colors.sol",
  "compiler": {
    "name": "solc",
    "version": "0.8.0+commit.c7dfd78e.Emscripten.clang"
  },
  "schemaVersion": "3.4.3",
  "updatedAt": "2021-12-12T02:44:54.377Z",
  "networkType": "ethereum",
  "devdoc": {
    "details": "Time based resource transfers",
    "kind": "dev",
    "methods": {
      "approve(address,uint256)": {
        "details": "See {IERC721-approve}."
      },
      "balanceOf(address)": {
        "details": "See {IERC721-balanceOf}."
      },
      "getApproved(uint256)": {
        "details": "See {IERC721-getApproved}."
      },
      "isApprovedForAll(address,address)": {
        "details": "See {IERC721-isApprovedForAll}."
      },
      "name()": {
        "details": "See {IERC721Metadata-name}."
      },
      "ownerOf(uint256)": {
        "details": "See {IERC721-ownerOf}."
      },
      "safeTransferFrom(address,address,uint256)": {
        "details": "See {IERC721-safeTransferFrom}."
      },
      "safeTransferFrom(address,address,uint256,bytes)": {
        "details": "See {IERC721-safeTransferFrom}."
      },
      "setApprovalForAll(address,bool)": {
        "details": "See {IERC721-setApprovalForAll}."
      },
      "symbol()": {
        "details": "See {IERC721Metadata-symbol}."
      },
      "tokenByIndex(uint256)": {
        "details": "See {IERC721Enumerable-tokenByIndex}."
      },
      "tokenOfOwnerByIndex(address,uint256)": {
        "details": "See {IERC721Enumerable-tokenOfOwnerByIndex}."
      },
      "tokenURI(uint256)": {
        "details": "See {IERC721Metadata-tokenURI}."
      },
      "totalSupply()": {
        "details": "See {IERC721Enumerable-totalSupply}."
      },
      "transferFrom(address,address,uint256)": {
        "details": "See {IERC721-transferFrom}."
      }
    },
    "title": "SmartWill",
    "version": 1
  },
  "userdoc": {
    "kind": "user",
    "methods": {},
    "version": 1
  }
}