{
  "contractName": "Colors",
  "abi": [
    {
      "inputs": [],
      "stateMutability": "nonpayable",
      "type": "constructor"
    },
    {
      "anonymous": false,
      "inputs": [
        {
          "indexed": true,
          "internalType": "address",
          "name": "owner",
          "type": "address"
        },
        {
          "indexed": true,
          "internalType": "address",
          "name": "approved",
          "type": "address"
        },
        {
          "indexed": true,
          "internalType": "uint256",
          "name": "tokenId",
          "type": "uint256"
        }
      ],
      "name": "Approval",
      "type": "event"
    },
    {
      "anonymous": false,
      "inputs": [
        {
          "indexed": true,
          "internalType": "address",
          "name": "owner",
          "type": "address"
        },
        {
          "indexed": true,
          "internalType": "address",
          "name": "operator",
          "type": "address"
        },
        {
          "indexed": false,
          "internalType": "bool",
          "name": "approved",
          "type": "bool"
        }
      ],
      "name": "ApprovalForAll",
      "type": "event"
    },
    {
      "anonymous": false,
      "inputs": [
        {
          "indexed": false,
          "internalType": "string",
          "name": "_rgb",
          "type": "string"
        },
        {
          "indexed": false,
          "internalType": "uint256",
          "name": "id",
          "type": "uint256"
        }
      ],
      "name": "TokenMinted",
      "type": "event"
    },
    {
      "anonymous": false,
      "inputs": [
        {
          "indexed": true,
          "internalType": "address",
          "name": "from",
          "type": "address"
        },
        {
          "indexed": true,
          "internalType": "address",
          "name": "to",
          "type": "address"
        },
        {
          "indexed": true,
          "internalType": "uint256",
          "name": "tokenId",
          "type": "uint256"
        }
      ],
      "name": "Transfer",
      "type": "event"
    },
    {
      "inputs": [
        {
          "internalType": "address",
          "name": "to",
          "type": "address"
        },
        {
          "internalType": "uint256",
          "name": "tokenId",
          "type": "uint256"
        }
      ],
      "name": "approve",
      "outputs": [],
      "stateMutability": "nonpayable",
      "type": "function"
    },
    {
      "inputs": [
        {
          "internalType": "address",
          "name": "owner",
          "type": "address"
        }
      ],
      "name": "balanceOf",
      "outputs": [
        {
          "internalType": "uint256",
          "name": "",
          "type": "uint256"
        }
      ],
      "stateMutability": "view",
      "type": "function",
      "constant": true
    },
    {
      "inputs": [
        {
          "internalType": "uint256",
          "name": "tokenId",
          "type": "uint256"
        }
      ],
      "name": "getApproved",
      "outputs": [
        {
          "internalType": "address",
          "name": "",
          "type": "address"
        }
      ],
      "stateMutability": "view",
      "type": "function",
      "constant": true
    },
    {
      "inputs": [
        {
          "internalType": "address",
          "name": "owner",
          "type": "address"
        },
        {
          "internalType": "address",
          "name": "operator",
          "type": "address"
        }
      ],
      "name": "isApprovedForAll",
      "outputs": [
        {
          "internalType": "bool",
          "name": "",
          "type": "bool"
        }
      ],
      "stateMutability": "view",
      "type": "function",
      "constant": true
    },
    {
      "inputs": [
        {
          "internalType": "uint256",
          "name": "",
          "type": "uint256"
        }
      ],
      "name": "mintedColors",
      "outputs": [
        {
          "internalType": "string",
          "name": "",
          "type": "string"
        }
      ],
      "stateMutability": "view",
      "type": "function",
      "constant": true
    },
    {
      "inputs": [],
      "name": "name",
      "outputs": [
        {
          "internalType": "string",
          "name": "",
          "type": "string"
        }
      ],
      "stateMutability": "view",
      "type": "function",
      "constant": true
    },
    {
      "inputs": [
        {
          "internalType": "uint256",
          "name": "tokenId",
          "type": "uint256"
        }
      ],
      "name": "ownerOf",
      "outputs": [
        {
          "internalType": "address",
          "name": "",
          "type": "address"
        }
      ],
      "stateMutability": "view",
      "type": "function",
      "constant": true
    },
    {
      "inputs": [
        {
          "internalType": "address",
          "name": "from",
          "type": "address"
        },
        {
          "internalType": "address",
          "name": "to",
          "type": "address"
        },
        {
          "internalType": "uint256",
          "name": "tokenId",
          "type": "uint256"
        }
      ],
      "name": "safeTransferFrom",
      "outputs": [],
      "stateMutability": "nonpayable",
      "type": "function"
    },
    {
      "inputs": [
        {
          "internalType": "address",
          "name": "from",
          "type": "address"
        },
        {
          "internalType": "address",
          "name": "to",
          "type": "address"
        },
        {
          "internalType": "uint256",
          "name": "tokenId",
          "type": "uint256"
        },
        {
          "internalType": "bytes",
          "name": "_data",
          "type": "bytes"
        }
      ],
      "name": "safeTransferFrom",
      "outputs": [],
      "stateMutability": "nonpayable",
      "type": "function"
    },
    {
      "inputs": [
        {
          "internalType": "address",
          "name": "operator",
          "type": "address"
        },
        {
          "internalType": "bool",
          "name": "approved",
          "type": "bool"
        }
      ],
      "name": "setApprovalForAll",
      "outputs": [],
      "stateMutability": "nonpayable",
      "type": "function"
    },
    {
      "inputs": [],
      "name": "symbol",
      "outputs": [
        {
          "internalType": "string",
          "name": "",
          "type": "string"
        }
      ],
      "stateMutability": "view",
      "type": "function",
      "constant": true
    },
    {
      "inputs": [
        {
          "internalType": "uint256",
          "name": "index",
          "type": "uint256"
        }
      ],
      "name": "tokenByIndex",
      "outputs": [
        {
          "internalType": "uint256",
          "name": "",
          "type": "uint256"
        }
      ],
      "stateMutability": "view",
      "type": "function",
      "constant": true
    },
    {
      "inputs": [
        {
          "internalType": "address",
          "name": "owner",
          "type": "address"
        },
        {
          "internalType": "uint256",
          "name": "index",
          "type": "uint256"
        }
      ],
      "name": "tokenOfOwnerByIndex",
      "outputs": [
        {
          "internalType": "uint256",
          "name": "",
          "type": "uint256"
        }
      ],
      "stateMutability": "view",
      "type": "function",
      "constant": true
    },
    {
      "inputs": [
        {
          "internalType": "uint256",
          "name": "tokenId",
          "type": "uint256"
        }
      ],
      "name": "tokenURI",
      "outputs": [
        {
          "internalType": "string",
          "name": "",
          "type": "string"
        }
      ],
      "stateMutability": "view",
      "type": "function",
      "constant": true
    },
    {
      "inputs": [],
      "name": "totalSupply",
      "outputs": [
        {
          "internalType": "uint256",
          "name": "",
          "type": "uint256"
        }
      ],
      "stateMutability": "view",
      "type": "function",
      "constant": true
    },
    {
      "inputs": [
        {
          "internalType": "address",
          "name": "from",
          "type": "address"
        },
        {
          "internalType": "address",
          "name": "to",
          "type": "address"
        },
        {
          "internalType": "uint256",
          "name": "tokenId",
          "type": "uint256"
        }
      ],
      "name": "transferFrom",
      "outputs": [],
      "stateMutability": "nonpayable",
      "type": "function"
    },
    {
      "inputs": [
        {
          "internalType": "bytes4",
          "name": "interfaceId",
          "type": "bytes4"
        }
      ],
      "name": "supportsInterface",
      "outputs": [
        {
          "internalType": "bool",
          "name": "",
          "type": "bool"
        }
      ],
      "stateMutability": "view",
      "type": "function",
      "constant": true
    },
    {
      "inputs": [
        {
          "internalType": "string",
          "name": "_rgb",
          "type": "string"
        }
      ],
      "name": "mint",
      "outputs": [],
      "stateMutability": "nonpayable",
      "type": "function"
    },
    {
      "inputs": [
        {
          "internalType": "uint256",
          "name": "index",
          "type": "uint256"
        }
      ],
      "name": "getColorTokenByIndex",
      "outputs": [
        {
          "components": [
            {
              "internalType": "uint256",
              "name": "id",
              "type": "uint256"
            },
            {
              "internalType": "address",
              "name": "owner",
              "type": "address"
            },
            {
              "internalType": "string",
              "name": "rgb",
              "type": "string"
            }
          ],
          "internalType": "struct Colors.ColorToken",
          "name": "",
          "type": "tuple"
        }
      ],
      "stateMutability": "view",
      "type": "function",
      "constant": true
    }
  ],
  "bytecode": "0x60806040523480156200001157600080fd5b506040518060400160405280600681526020017f436f6c6f727300000000000000000000000000000000000000000000000000008152506040518060400160405280600381526020017f434c520000000000000000000000000000000000000000000000000000000000815250816000908051906020019062000096929190620000b8565b508060019080519060200190620000af929190620000b8565b505050620001cd565b828054620000c69062000168565b90600052602060002090601f016020900481019282620000ea576000855562000136565b82601f106200010557805160ff191683800117855562000136565b8280016001018555821562000136579182015b828111156200013557825182559160200191906001019062000118565b5b50905062000145919062000149565b5090565b5b80821115620001645760008160009055506001016200014a565b5090565b600060028204905060018216806200018157607f821691505b602082108114156200019857620001976200019e565b5b50919050565b7f4e487b7100000000000000000000000000000000000000000000000000000000600052602260045260246000fd5b61373280620001dd6000396000f3fe608060405234801561001057600080fd5b50600436106101215760003560e01c806361582cca116100ad578063b88d4fde11610071578063b88d4fde14610340578063c87b56dd1461035c578063d85d3d271461038c578063e2f7c362146103a8578063e985e9c5146103d857610121565b806361582cca146102765780636352211e146102a657806370a08231146102d657806395d89b4114610306578063a22cb4651461032457610121565b806318160ddd116100f457806318160ddd146101c057806323b872dd146101de5780632f745c59146101fa57806342842e0e1461022a5780634f6ccce71461024657610121565b806301ffc9a71461012657806306fdde0314610156578063081812fc14610174578063095ea7b3146101a4575b600080fd5b610140600480360381019061013b919061267e565b610408565b60405161014d9190612fe7565b60405180910390f35b61015e61041a565b60405161016b9190613002565b60405180910390f35b61018e60048036038101906101899190612711565b6104ac565b60405161019b9190612f80565b60405180910390f35b6101be60048036038101906101b99190612642565b610531565b005b6101c8610649565b6040516101d591906132b6565b60405180910390f35b6101f860048036038101906101f3919061253c565b610656565b005b610214600480360381019061020f9190612642565b6106b6565b60405161022191906132b6565b60405180910390f35b610244600480360381019061023f919061253c565b61075b565b005b610260600480360381019061025b9190612711565b61077b565b60405161026d91906132b6565b60405180910390f35b610290600480360381019061028b9190612711565b610812565b60405161029d9190613294565b60405180910390f35b6102c060048036038101906102bb9190612711565b610940565b6040516102cd9190612f80565b60405180910390f35b6102f060048036038101906102eb91906124d7565b6109f2565b6040516102fd91906132b6565b60405180910390f35b61030e610aaa565b60405161031b9190613002565b60405180910390f35b61033e60048036038101906103399190612606565b610b3c565b005b61035a6004803603810190610355919061258b565b610b52565b005b61037660048036038101906103719190612711565b610bb4565b6040516103839190613002565b60405180910390f35b6103a660048036038101906103a191906126d0565b610c5b565b005b6103c260048036038101906103bd9190612711565b610dec565b6040516103cf9190613002565b60405180910390f35b6103f260048036038101906103ed9190612500565b610e98565b6040516103ff9190612fe7565b60405180910390f35b600061041382610f2c565b9050919050565b60606000805461042990613527565b80601f016020809104026020016040519081016040528092919081815260200182805461045590613527565b80156104a25780601f10610477576101008083540402835291602001916104a2565b820191906000526020600020905b81548152906001019060200180831161048557829003601f168201915b5050505050905090565b60006104b782610fa6565b6104f6576040517f08c379a00000000000000000000000000000000000000000000000000000000081526004016104ed90613194565b60405180910390fd5b6004600083815260200190815260200160002060009054906101000a900473ffffffffffffffffffffffffffffffffffffffff169050919050565b600061053c82610940565b90508073ffffffffffffffffffffffffffffffffffffffff168373ffffffffffffffffffffffffffffffffffffffff1614156105ad576040517f08c379a00000000000000000000000000000000000000000000000000000000081526004016105a4906131f4565b60405180910390fd5b8073ffffffffffffffffffffffffffffffffffffffff166105cc611012565b73ffffffffffffffffffffffffffffffffffffffff1614806105fb57506105fa816105f5611012565b610e98565b5b61063a576040517f08c379a000000000000000000000000000000000000000000000000000000000815260040161063190613114565b60405180910390fd5b610644838361101a565b505050565b6000600880549050905090565b610667610661611012565b826110d3565b6106a6576040517f08c379a000000000000000000000000000000000000000000000000000000000815260040161069d90613234565b60405180910390fd5b6106b18383836111b1565b505050565b60006106c1836109f2565b8210610702576040517f08c379a00000000000000000000000000000000000000000000000000000000081526004016106f990613054565b60405180910390fd5b600660008473ffffffffffffffffffffffffffffffffffffffff1673ffffffffffffffffffffffffffffffffffffffff168152602001908152602001600020600083815260200190815260200160002054905092915050565b61077683838360405180602001604052806000815250610b52565b505050565b6000610785610649565b82106107c6576040517f08c379a00000000000000000000000000000000000000000000000000000000081526004016107bd90613254565b60405180910390fd5b60088281548110610800577f4e487b7100000000000000000000000000000000000000000000000000000000600052603260045260246000fd5b90600052602060002001549050919050565b61081a6122c4565b60006108258361077b565b9050600061083282610940565b90506000600a8581548110610870577f4e487b7100000000000000000000000000000000000000000000000000000000600052603260045260246000fd5b90600052602060002001805461088590613527565b80601f01602080910402602001604051908101604052809291908181526020018280546108b190613527565b80156108fe5780601f106108d3576101008083540402835291602001916108fe565b820191906000526020600020905b8154815290600101906020018083116108e157829003601f168201915b5050505050905060405180606001604052808481526020018373ffffffffffffffffffffffffffffffffffffffff168152602001828152509350505050919050565b6000806002600084815260200190815260200160002060009054906101000a900473ffffffffffffffffffffffffffffffffffffffff169050600073ffffffffffffffffffffffffffffffffffffffff168173ffffffffffffffffffffffffffffffffffffffff1614156109e9576040517f08c379a00000000000000000000000000000000000000000000000000000000081526004016109e090613154565b60405180910390fd5b80915050919050565b60008073ffffffffffffffffffffffffffffffffffffffff168273ffffffffffffffffffffffffffffffffffffffff161415610a63576040517f08c379a0000000000000000000000000000000000000000000000000000000008152600401610a5a90613134565b60405180910390fd5b600360008373ffffffffffffffffffffffffffffffffffffffff1673ffffffffffffffffffffffffffffffffffffffff168152602001908152602001600020549050919050565b606060018054610ab990613527565b80601f0160208091040260200160405190810160405280929190818152602001828054610ae590613527565b8015610b325780601f10610b0757610100808354040283529160200191610b32565b820191906000526020600020905b815481529060010190602001808311610b1557829003601f168201915b5050505050905090565b610b4e610b47611012565b838361140d565b5050565b610b63610b5d611012565b836110d3565b610ba2576040517f08c379a0000000000000000000000000000000000000000000000000000000008152600401610b9990613234565b60405180910390fd5b610bae8484848461157a565b50505050565b6060610bbf82610fa6565b610bfe576040517f08c379a0000000000000000000000000000000000000000000000000000000008152600401610bf5906131d4565b60405180910390fd5b6000610c086115d6565b90506000815111610c285760405180602001604052806000815250610c53565b80610c32846115ed565b604051602001610c43929190612f5c565b6040516020818303038152906040525b915050919050565b60011515610c688261179a565b151514610caa576040517f08c379a0000000000000000000000000000000000000000000000000000000008152600401610ca190613214565b60405180910390fd5b60001515600b82604051610cbe9190612f45565b908152602001604051809103902060009054906101000a900460ff16151514610d1c576040517f08c379a0000000000000000000000000000000000000000000000000000000008152600401610d1390613274565b60405180910390fd5b600a81908060018154018082558091505060019003906000526020600020016000909190919091509080519060200190610d579291906122fb565b5060006001600a80549050610d6c919061343d565b9050610d78338261195f565b6001600b83604051610d8a9190612f45565b908152602001604051809103902060006101000a81548160ff0219169083151502179055507f51413fa31ea07fada8e4b3a4719c2683c7288050bc37c83c4ad11ce93423087f8282604051610de0929190613024565b60405180910390a15050565b600a8181548110610dfc57600080fd5b906000526020600020016000915090508054610e1790613527565b80601f0160208091040260200160405190810160405280929190818152602001828054610e4390613527565b8015610e905780601f10610e6557610100808354040283529160200191610e90565b820191906000526020600020905b815481529060010190602001808311610e7357829003601f168201915b505050505081565b6000600560008473ffffffffffffffffffffffffffffffffffffffff1673ffffffffffffffffffffffffffffffffffffffff16815260200190815260200160002060008373ffffffffffffffffffffffffffffffffffffffff1673ffffffffffffffffffffffffffffffffffffffff16815260200190815260200160002060009054906101000a900460ff16905092915050565b60007f780e9d63000000000000000000000000000000000000000000000000000000007bffffffffffffffffffffffffffffffffffffffffffffffffffffffff1916827bffffffffffffffffffffffffffffffffffffffffffffffffffffffff19161480610f9f5750610f9e82611b2d565b5b9050919050565b60008073ffffffffffffffffffffffffffffffffffffffff166002600084815260200190815260200160002060009054906101000a900473ffffffffffffffffffffffffffffffffffffffff1673ffffffffffffffffffffffffffffffffffffffff1614159050919050565b600033905090565b816004600083815260200190815260200160002060006101000a81548173ffffffffffffffffffffffffffffffffffffffff021916908373ffffffffffffffffffffffffffffffffffffffff160217905550808273ffffffffffffffffffffffffffffffffffffffff1661108d83610940565b73ffffffffffffffffffffffffffffffffffffffff167f8c5be1e5ebec7d5bd14f71427d1e84f3dd0314c0f7b2291e5b200ac8c7c3b92560405160405180910390a45050565b60006110de82610fa6565b61111d576040517f08c379a0000000000000000000000000000000000000000000000000000000008152600401611114906130f4565b60405180910390fd5b600061112883610940565b90508073ffffffffffffffffffffffffffffffffffffffff168473ffffffffffffffffffffffffffffffffffffffff16148061119757508373ffffffffffffffffffffffffffffffffffffffff1661117f846104ac565b73ffffffffffffffffffffffffffffffffffffffff16145b806111a857506111a78185610e98565b5b91505092915050565b8273ffffffffffffffffffffffffffffffffffffffff166111d182610940565b73ffffffffffffffffffffffffffffffffffffffff1614611227576040517f08c379a000000000000000000000000000000000000000000000000000000000815260040161121e906131b4565b60405180910390fd5b600073ffffffffffffffffffffffffffffffffffffffff168273ffffffffffffffffffffffffffffffffffffffff161415611297576040517f08c379a000000000000000000000000000000000000000000000000000000000815260040161128e906130b4565b60405180910390fd5b6112a2838383611c0f565b6112ad60008261101a565b6001600360008573ffffffffffffffffffffffffffffffffffffffff1673ffffffffffffffffffffffffffffffffffffffff16815260200190815260200160002060008282546112fd919061343d565b925050819055506001600360008473ffffffffffffffffffffffffffffffffffffffff1673ffffffffffffffffffffffffffffffffffffffff168152602001908152602001600020600082825461135491906133b6565b92505081905550816002600083815260200190815260200160002060006101000a81548173ffffffffffffffffffffffffffffffffffffffff021916908373ffffffffffffffffffffffffffffffffffffffff160217905550808273ffffffffffffffffffffffffffffffffffffffff168473ffffffffffffffffffffffffffffffffffffffff167fddf252ad1be2c89b69c2b068fc378daa952ba7f163c4a11628f55a4df523b3ef60405160405180910390a4505050565b8173ffffffffffffffffffffffffffffffffffffffff168373ffffffffffffffffffffffffffffffffffffffff16141561147c576040517f08c379a0000000000000000000000000000000000000000000000000000000008152600401611473906130d4565b60405180910390fd5b80600560008573ffffffffffffffffffffffffffffffffffffffff1673ffffffffffffffffffffffffffffffffffffffff16815260200190815260200160002060008473ffffffffffffffffffffffffffffffffffffffff1673ffffffffffffffffffffffffffffffffffffffff16815260200190815260200160002060006101000a81548160ff0219169083151502179055508173ffffffffffffffffffffffffffffffffffffffff168373ffffffffffffffffffffffffffffffffffffffff167f17307eab39ab6107e8899845ad3d59bd9653f200f220920489ca2b5937696c318360405161156d9190612fe7565b60405180910390a3505050565b6115858484846111b1565b61159184848484611c1f565b6115d0576040517f08c379a00000000000000000000000000000000000000000000000000000000081526004016115c790613074565b60405180910390fd5b50505050565b606060405180602001604052806000815250905090565b60606000821415611635576040518060400160405280600181526020017f30000000000000000000000000000000000000000000000000000000000000008152509050611795565b600082905060005b6000821461166757808061165090613559565b915050600a82611660919061340c565b915061163d565b60008167ffffffffffffffff8111156116a9577f4e487b7100000000000000000000000000000000000000000000000000000000600052604160045260246000fd5b6040519080825280601f01601f1916602001820160405280156116db5781602001600182028036833780820191505090505b5090505b6000851461178e576001826116f4919061343d565b9150600a8561170391906135a2565b603061170f91906133b6565b60f81b81838151811061174b577f4e487b7100000000000000000000000000000000000000000000000000000000600052603260045260246000fd5b60200101907effffffffffffffffffffffffffffffffffffffffffffffffffffffffffffff1916908160001a905350600a85611787919061340c565b94506116df565b8093505050505b919050565b60008082905060068151146117b357600091505061195a565b60005b81518110156119535760008282815181106117fa577f4e487b7100000000000000000000000000000000000000000000000000000000600052603260045260246000fd5b602001015160f81c60f81b9050603060f81b817effffffffffffffffffffffffffffffffffffffffffffffffffffffffffffff1916101580156118635750603960f81b817effffffffffffffffffffffffffffffffffffffffffffffffffffffffffffff191611155b1580156118c95750604160f81b817effffffffffffffffffffffffffffffffffffffffffffffffffffffffffffff1916101580156118c75750604660f81b817effffffffffffffffffffffffffffffffffffffffffffffffffffffffffffff191611155b155b801561192e5750606160f81b817effffffffffffffffffffffffffffffffffffffffffffffffffffffffffffff19161015801561192c5750606660f81b817effffffffffffffffffffffffffffffffffffffffffffffffffffffffffffff191611155b155b1561193f576000935050505061195a565b50808061194b90613559565b9150506117b6565b5060019150505b919050565b600073ffffffffffffffffffffffffffffffffffffffff168273ffffffffffffffffffffffffffffffffffffffff1614156119cf576040517f08c379a00000000000000000000000000000000000000000000000000000000081526004016119c690613174565b60405180910390fd5b6119d881610fa6565b15611a18576040517f08c379a0000000000000000000000000000000000000000000000000000000008152600401611a0f90613094565b60405180910390fd5b611a2460008383611c0f565b6001600360008473ffffffffffffffffffffffffffffffffffffffff1673ffffffffffffffffffffffffffffffffffffffff1681526020019081526020016000206000828254611a7491906133b6565b92505081905550816002600083815260200190815260200160002060006101000a81548173ffffffffffffffffffffffffffffffffffffffff021916908373ffffffffffffffffffffffffffffffffffffffff160217905550808273ffffffffffffffffffffffffffffffffffffffff16600073ffffffffffffffffffffffffffffffffffffffff167fddf252ad1be2c89b69c2b068fc378daa952ba7f163c4a11628f55a4df523b3ef60405160405180910390a45050565b60007f80ac58cd000000000000000000000000000000000000000000000000000000007bffffffffffffffffffffffffffffffffffffffffffffffffffffffff1916827bffffffffffffffffffffffffffffffffffffffffffffffffffffffff19161480611bf857507f5b5e139f000000000000000000000000000000000000000000000000000000007bffffffffffffffffffffffffffffffffffffffffffffffffffffffff1916827bffffffffffffffffffffffffffffffffffffffffffffffffffffffff1916145b80611c085750611c0782611db6565b5b9050919050565b611c1a838383611e20565b505050565b6000611c408473ffffffffffffffffffffffffffffffffffffffff16611f34565b15611da9578373ffffffffffffffffffffffffffffffffffffffff1663150b7a02611c69611012565b8786866040518563ffffffff1660e01b8152600401611c8b9493929190612f9b565b602060405180830381600087803b158015611ca557600080fd5b505af1925050508015611cd657506040513d601f19601f82011682018060405250810190611cd391906126a7565b60015b611d59573d8060008114611d06576040519150601f19603f3d011682016040523d82523d6000602084013e611d0b565b606091505b50600081511415611d51576040517f08c379a0000000000000000000000000000000000000000000000000000000008152600401611d4890613074565b60405180910390fd5b805181602001fd5b63150b7a0260e01b7bffffffffffffffffffffffffffffffffffffffffffffffffffffffff1916817bffffffffffffffffffffffffffffffffffffffffffffffffffffffff191614915050611dae565b600190505b949350505050565b60007f01ffc9a7000000000000000000000000000000000000000000000000000000007bffffffffffffffffffffffffffffffffffffffffffffffffffffffff1916827bffffffffffffffffffffffffffffffffffffffffffffffffffffffff1916149050919050565b611e2b838383611f47565b600073ffffffffffffffffffffffffffffffffffffffff168373ffffffffffffffffffffffffffffffffffffffff161415611e6e57611e6981611f4c565b611ead565b8173ffffffffffffffffffffffffffffffffffffffff168373ffffffffffffffffffffffffffffffffffffffff1614611eac57611eab8382611f95565b5b5b600073ffffffffffffffffffffffffffffffffffffffff168273ffffffffffffffffffffffffffffffffffffffff161415611ef057611eeb81612102565b611f2f565b8273ffffffffffffffffffffffffffffffffffffffff168273ffffffffffffffffffffffffffffffffffffffff1614611f2e57611f2d8282612245565b5b5b505050565b600080823b905060008111915050919050565b505050565b6008805490506009600083815260200190815260200160002081905550600881908060018154018082558091505060019003906000526020600020016000909190919091505550565b60006001611fa2846109f2565b611fac919061343d565b9050600060076000848152602001908152602001600020549050818114612091576000600660008673ffffffffffffffffffffffffffffffffffffffff1673ffffffffffffffffffffffffffffffffffffffff168152602001908152602001600020600084815260200190815260200160002054905080600660008773ffffffffffffffffffffffffffffffffffffffff1673ffffffffffffffffffffffffffffffffffffffff168152602001908152602001600020600084815260200190815260200160002081905550816007600083815260200190815260200160002081905550505b6007600084815260200190815260200160002060009055600660008573ffffffffffffffffffffffffffffffffffffffff1673ffffffffffffffffffffffffffffffffffffffff16815260200190815260200160002060008381526020019081526020016000206000905550505050565b60006001600880549050612116919061343d565b905060006009600084815260200190815260200160002054905060006008838154811061216c577f4e487b7100000000000000000000000000000000000000000000000000000000600052603260045260246000fd5b9060005260206000200154905080600883815481106121b4577f4e487b7100000000000000000000000000000000000000000000000000000000600052603260045260246000fd5b906000526020600020018190555081600960008381526020019081526020016000208190555060096000858152602001908152602001600020600090556008805480612229577f4e487b7100000000000000000000000000000000000000000000000000000000600052603160045260246000fd5b6001900381819060005260206000200160009055905550505050565b6000612250836109f2565b905081600660008573ffffffffffffffffffffffffffffffffffffffff1673ffffffffffffffffffffffffffffffffffffffff168152602001908152602001600020600083815260200190815260200160002081905550806007600084815260200190815260200160002081905550505050565b604051806060016040528060008152602001600073ffffffffffffffffffffffffffffffffffffffff168152602001606081525090565b82805461230790613527565b90600052602060002090601f0160209004810192826123295760008555612370565b82601f1061234257805160ff1916838001178555612370565b82800160010185558215612370579182015b8281111561236f578251825591602001919060010190612354565b5b50905061237d9190612381565b5090565b5b8082111561239a576000816000905550600101612382565b5090565b60006123b16123ac84613302565b6132d1565b9050828152602081018484840111156123c957600080fd5b6123d48482856134e5565b509392505050565b60006123ef6123ea84613332565b6132d1565b90508281526020810184848401111561240757600080fd5b6124128482856134e5565b509392505050565b600081359050612429816136a0565b92915050565b60008135905061243e816136b7565b92915050565b600081359050612453816136ce565b92915050565b600081519050612468816136ce565b92915050565b600082601f83011261247f57600080fd5b813561248f84826020860161239e565b91505092915050565b600082601f8301126124a957600080fd5b81356124b98482602086016123dc565b91505092915050565b6000813590506124d1816136e5565b92915050565b6000602082840312156124e957600080fd5b60006124f78482850161241a565b91505092915050565b6000806040838503121561251357600080fd5b60006125218582860161241a565b92505060206125328582860161241a565b9150509250929050565b60008060006060848603121561255157600080fd5b600061255f8682870161241a565b93505060206125708682870161241a565b9250506040612581868287016124c2565b9150509250925092565b600080600080608085870312156125a157600080fd5b60006125af8782880161241a565b94505060206125c08782880161241a565b93505060406125d1878288016124c2565b925050606085013567ffffffffffffffff8111156125ee57600080fd5b6125fa8782880161246e565b91505092959194509250565b6000806040838503121561261957600080fd5b60006126278582860161241a565b92505060206126388582860161242f565b9150509250929050565b6000806040838503121561265557600080fd5b60006126638582860161241a565b9250506020612674858286016124c2565b9150509250929050565b60006020828403121561269057600080fd5b600061269e84828501612444565b91505092915050565b6000602082840312156126b957600080fd5b60006126c784828501612459565b91505092915050565b6000602082840312156126e257600080fd5b600082013567ffffffffffffffff8111156126fc57600080fd5b61270884828501612498565b91505092915050565b60006020828403121561272357600080fd5b6000612731848285016124c2565b91505092915050565b61274381613471565b82525050565b61275281613471565b82525050565b61276181613483565b82525050565b600061277282613362565b61277c8185613378565b935061278c8185602086016134f4565b6127958161368f565b840191505092915050565b60006127ab8261336d565b6127b58185613389565b93506127c58185602086016134f4565b6127ce8161368f565b840191505092915050565b60006127e48261336d565b6127ee818561339a565b93506127fe8185602086016134f4565b6128078161368f565b840191505092915050565b600061281d8261336d565b61282781856133ab565b93506128378185602086016134f4565b80840191505092915050565b6000612850602b8361339a565b91507f455243373231456e756d657261626c653a206f776e657220696e646578206f7560008301527f74206f6620626f756e64730000000000000000000000000000000000000000006020830152604082019050919050565b60006128b660328361339a565b91507f4552433732313a207472616e7366657220746f206e6f6e20455243373231526560008301527f63656976657220696d706c656d656e74657200000000000000000000000000006020830152604082019050919050565b600061291c601c8361339a565b91507f4552433732313a20746f6b656e20616c7265616479206d696e746564000000006000830152602082019050919050565b600061295c60248361339a565b91507f4552433732313a207472616e7366657220746f20746865207a65726f2061646460008301527f72657373000000000000000000000000000000000000000000000000000000006020830152604082019050919050565b60006129c260198361339a565b91507f4552433732313a20617070726f766520746f2063616c6c6572000000000000006000830152602082019050919050565b6000612a02602c8361339a565b91507f4552433732313a206f70657261746f7220717565727920666f72206e6f6e657860008301527f697374656e7420746f6b656e00000000000000000000000000000000000000006020830152604082019050919050565b6000612a6860388361339a565b91507f4552433732313a20617070726f76652063616c6c6572206973206e6f74206f7760008301527f6e6572206e6f7220617070726f76656420666f7220616c6c00000000000000006020830152604082019050919050565b6000612ace602a8361339a565b91507f4552433732313a2062616c616e636520717565727920666f7220746865207a6560008301527f726f2061646472657373000000000000000000000000000000000000000000006020830152604082019050919050565b6000612b3460298361339a565b91507f4552433732313a206f776e657220717565727920666f72206e6f6e657869737460008301527f656e7420746f6b656e00000000000000000000000000000000000000000000006020830152604082019050919050565b6000612b9a60208361339a565b91507f4552433732313a206d696e7420746f20746865207a65726f20616464726573736000830152602082019050919050565b6000612bda602c8361339a565b91507f4552433732313a20617070726f76656420717565727920666f72206e6f6e657860008301527f697374656e7420746f6b656e00000000000000000000000000000000000000006020830152604082019050919050565b6000612c4060298361339a565b91507f4552433732313a207472616e73666572206f6620746f6b656e2074686174206960008301527f73206e6f74206f776e00000000000000000000000000000000000000000000006020830152604082019050919050565b6000612ca6602f8361339a565b91507f4552433732314d657461646174613a2055524920717565727920666f72206e6f60008301527f6e6578697374656e7420746f6b656e00000000000000000000000000000000006020830152604082019050919050565b6000612d0c60218361339a565b91507f4552433732313a20617070726f76616c20746f2063757272656e74206f776e6560008301527f72000000000000000000000000000000000000000000000000000000000000006020830152604082019050919050565b6000612d7260128361339a565b91507f57726f6e6720636f6c6f7220666f726d617400000000000000000000000000006000830152602082019050919050565b6000612db260318361339a565b91507f4552433732313a207472616e736665722063616c6c6572206973206e6f74206f60008301527f776e6572206e6f7220617070726f7665640000000000000000000000000000006020830152604082019050919050565b6000612e18602c8361339a565b91507f455243373231456e756d657261626c653a20676c6f62616c20696e646578206f60008301527f7574206f6620626f756e647300000000000000000000000000000000000000006020830152604082019050919050565b6000612e7e60288361339a565b91507f4120746f6b656e20666f72207468697320636f6c6f7220697320616c7265616460008301527f79206d696e7465640000000000000000000000000000000000000000000000006020830152604082019050919050565b6000606083016000830151612eef6000860182612f27565b506020830151612f02602086018261273a565b5060408301518482036040860152612f1a82826127a0565b9150508091505092915050565b612f30816134db565b82525050565b612f3f816134db565b82525050565b6000612f518284612812565b915081905092915050565b6000612f688285612812565b9150612f748284612812565b91508190509392505050565b6000602082019050612f956000830184612749565b92915050565b6000608082019050612fb06000830187612749565b612fbd6020830186612749565b612fca6040830185612f36565b8181036060830152612fdc8184612767565b905095945050505050565b6000602082019050612ffc6000830184612758565b92915050565b6000602082019050818103600083015261301c81846127d9565b905092915050565b6000604082019050818103600083015261303e81856127d9565b905061304d6020830184612f36565b9392505050565b6000602082019050818103600083015261306d81612843565b9050919050565b6000602082019050818103600083015261308d816128a9565b9050919050565b600060208201905081810360008301526130ad8161290f565b9050919050565b600060208201905081810360008301526130cd8161294f565b9050919050565b600060208201905081810360008301526130ed816129b5565b9050919050565b6000602082019050818103600083015261310d816129f5565b9050919050565b6000602082019050818103600083015261312d81612a5b565b9050919050565b6000602082019050818103600083015261314d81612ac1565b9050919050565b6000602082019050818103600083015261316d81612b27565b9050919050565b6000602082019050818103600083015261318d81612b8d565b9050919050565b600060208201905081810360008301526131ad81612bcd565b9050919050565b600060208201905081810360008301526131cd81612c33565b9050919050565b600060208201905081810360008301526131ed81612c99565b9050919050565b6000602082019050818103600083015261320d81612cff565b9050919050565b6000602082019050818103600083015261322d81612d65565b9050919050565b6000602082019050818103600083015261324d81612da5565b9050919050565b6000602082019050818103600083015261326d81612e0b565b9050919050565b6000602082019050818103600083015261328d81612e71565b9050919050565b600060208201905081810360008301526132ae8184612ed7565b905092915050565b60006020820190506132cb6000830184612f36565b92915050565b6000604051905081810181811067ffffffffffffffff821117156132f8576132f7613660565b5b8060405250919050565b600067ffffffffffffffff82111561331d5761331c613660565b5b601f19601f8301169050602081019050919050565b600067ffffffffffffffff82111561334d5761334c613660565b5b601f19601f8301169050602081019050919050565b600081519050919050565b600081519050919050565b600082825260208201905092915050565b600082825260208201905092915050565b600082825260208201905092915050565b600081905092915050565b60006133c1826134db565b91506133cc836134db565b9250827fffffffffffffffffffffffffffffffffffffffffffffffffffffffffffffffff03821115613401576134006135d3565b5b828201905092915050565b6000613417826134db565b9150613422836134db565b92508261343257613431613602565b5b828204905092915050565b6000613448826134db565b9150613453836134db565b925082821015613466576134656135d3565b5b828203905092915050565b600061347c826134bb565b9050919050565b60008115159050919050565b60007fffffffff0000000000000000000000000000000000000000000000000000000082169050919050565b600073ffffffffffffffffffffffffffffffffffffffff82169050919050565b6000819050919050565b82818337600083830152505050565b60005b838110156135125780820151818401526020810190506134f7565b83811115613521576000848401525b50505050565b6000600282049050600182168061353f57607f821691505b6020821081141561355357613552613631565b5b50919050565b6000613564826134db565b91507fffffffffffffffffffffffffffffffffffffffffffffffffffffffffffffffff821415613597576135966135d3565b5b600182019050919050565b60006135ad826134db565b91506135b8836134db565b9250826135c8576135c7613602565b5b828206905092915050565b7f4e487b7100000000000000000000000000000000000000000000000000000000600052601160045260246000fd5b7f4e487b7100000000000000000000000000000000000000000000000000000000600052601260045260246000fd5b7f4e487b7100000000000000000000000000000000000000000000000000000000600052602260045260246000fd5b7f4e487b7100000000000000000000000000000000000000000000000000000000600052604160045260246000fd5b6000601f19601f8301169050919050565b6136a981613471565b81146136b457600080fd5b50565b6136c081613483565b81146136cb57600080fd5b50565b6136d78161348f565b81146136e257600080fd5b50565b6136ee816134db565b81146136f957600080fd5b5056fea26469706673582212207fd87c3c67bd31fdf058fdb8b4d1321c46bb231cdfefc6b0849729b02584312a64736f6c63430008000033",
  "immutableReferences": {},
  "source": "// SPDX-License-Identifier: GPL-3.0\r\n\r\npragma solidity >=0.8.0 <0.9.0;\r\n\r\nimport \"@openzeppelin/contracts/token/ERC721/extensions/ERC721Enumerable.sol\";\r\n/**\r\n * @title SmartWill\r\n * @dev Time based resource transfers\r\n */\r\ncontract Colors is ERC721Enumerable {\r\n\r\n    struct ColorToken{\r\n        uint id;\r\n        address owner;\r\n        string rgb;\r\n    }\r\n\r\n    event TokenMinted(string _rgb, uint id);\r\n    \r\n    string[] public mintedColors;\r\n    mapping(string => bool) _colorMinted;\r\n\r\n    constructor() ERC721(\"Colors\", \"CLR\") {}\r\n\r\n    function _beforeTokenTransfer(address from, address to, uint256 tokenId) internal override(ERC721Enumerable){\r\n        super._beforeTokenTransfer(from, to, tokenId);\r\n    }\r\n\r\n    function supportsInterface(bytes4 interfaceId) public view override(ERC721Enumerable) returns (bool){\r\n        return super.supportsInterface(interfaceId);\r\n    }\r\n\r\n    /**\r\n        Creates a new Color token.\r\n    */\r\n    function mint(string memory _rgb) public {\r\n        require(validateRgb(_rgb) == true, 'Wrong color format');\r\n        require(_colorMinted[_rgb] == false, 'A token for this color is already minted');\r\n        mintedColors.push(_rgb);\r\n        uint _id = mintedColors.length - 1;\r\n        _mint(msg.sender, _id);\r\n        _colorMinted[_rgb] = true;\r\n        emit TokenMinted(_rgb,_id);\r\n    }\r\n\r\n    /**\r\n        Assures string is in correct RGB format\r\n    */\r\n    function validateRgb(string memory str) internal pure returns (bool){\r\n        bytes memory b = bytes(str);\r\n        if(b.length != 6) return false;\r\n        for(uint i; i<b.length; i++){\r\n            bytes1 char = b[i];\r\n            if(\r\n                !(char >= 0x30 && char <= 0x39) && //9-0\r\n                !(char >= 0x41 && char <= 0x46) && //A-F\r\n                !(char >= 0x61 && char <= 0x66)\r\n            )\r\n            return false;\r\n        }\r\n        return true;\r\n    }\r\n\r\n    function getColorTokenByIndex(uint index) public view returns (ColorToken memory){\r\n       uint tokenId =  tokenByIndex(index);\r\n       address owner = ownerOf(tokenId);\r\n       string memory rgb = mintedColors[index];\r\n       return ColorToken({\r\n        id: tokenId,\r\n        owner: owner,\r\n        rgb: rgb\r\n       }); \r\n    }\r\n\r\n}",
  "sourcePath": "D:\\dev\\colors_contract\\contracts\\Colors.sol",
  "compiler": {
    "name": "solc",
    "version": "0.8.0+commit.c7dfd78e.Emscripten.clang"
  },
  "schemaVersion": "3.4.3",
  "updatedAt": "2021-12-21T23:56:00.253Z",
  "networkType": "ethereum",
  "devdoc": {
    "details": "Time based resource transfers",
    "kind": "dev",
    "methods": {
      "approve(address,uint256)": {
        "details": "See {IERC721-approve}."
      },
      "balanceOf(address)": {
        "details": "See {IERC721-balanceOf}."
      },
      "getApproved(uint256)": {
        "details": "See {IERC721-getApproved}."
      },
      "isApprovedForAll(address,address)": {
        "details": "See {IERC721-isApprovedForAll}."
      },
      "name()": {
        "details": "See {IERC721Metadata-name}."
      },
      "ownerOf(uint256)": {
        "details": "See {IERC721-ownerOf}."
      },
      "safeTransferFrom(address,address,uint256)": {
        "details": "See {IERC721-safeTransferFrom}."
      },
      "safeTransferFrom(address,address,uint256,bytes)": {
        "details": "See {IERC721-safeTransferFrom}."
      },
      "setApprovalForAll(address,bool)": {
        "details": "See {IERC721-setApprovalForAll}."
      },
      "supportsInterface(bytes4)": {
        "details": "See {IERC165-supportsInterface}."
      },
      "symbol()": {
        "details": "See {IERC721Metadata-symbol}."
      },
      "tokenByIndex(uint256)": {
        "details": "See {IERC721Enumerable-tokenByIndex}."
      },
      "tokenOfOwnerByIndex(address,uint256)": {
        "details": "See {IERC721Enumerable-tokenOfOwnerByIndex}."
      },
      "tokenURI(uint256)": {
        "details": "See {IERC721Metadata-tokenURI}."
      },
      "totalSupply()": {
        "details": "See {IERC721Enumerable-totalSupply}."
      },
      "transferFrom(address,address,uint256)": {
        "details": "See {IERC721-transferFrom}."
      }
    },
    "title": "SmartWill",
    "version": 1
  },
  "userdoc": {
    "kind": "user",
    "methods": {
      "mint(string)": {
        "notice": "Creates a new Color token."
      }
    },
    "version": 1
  }
}